{
  "_format": "hh-sol-artifact-1",
  "contractName": "FHEPrivyJobs",
  "sourceName": "contracts/FHEPrivyJobs.sol",
  "abi": [
    {
      "inputs": [],
      "name": "ZamaProtocolUnsupported",
      "type": "error"
    },
    {
      "anonymous": false,
      "inputs": [
        {
          "indexed": true,
          "internalType": "address",
          "name": "applicant",
          "type": "address"
        }
      ],
      "name": "EncryptedJobStored",
      "type": "event"
    },
    {
      "inputs": [],
      "name": "confidentialProtocolId",
      "outputs": [
        {
          "internalType": "uint256",
          "name": "",
          "type": "uint256"
        }
      ],
      "stateMutability": "view",
      "type": "function"
    },
    {
      "inputs": [
        {
          "internalType": "address",
          "name": "user",
          "type": "address"
        }
      ],
      "name": "getEncryptedJob",
      "outputs": [
        {
          "internalType": "euint32",
          "name": "",
          "type": "bytes32"
        }
      ],
      "stateMutability": "view",
      "type": "function"
    },
    {
      "inputs": [
        {
          "internalType": "address",
          "name": "user",
          "type": "address"
        }
      ],
      "name": "isJobSubmitted",
      "outputs": [
        {
          "internalType": "bool",
          "name": "",
          "type": "bool"
        }
      ],
      "stateMutability": "view",
      "type": "function"
    },
    {
      "inputs": [
        {
          "internalType": "externalEuint32",
          "name": "encryptedJob",
          "type": "bytes32"
        },
        {
          "internalType": "bytes",
          "name": "zkProof",
          "type": "bytes"
        }
      ],
      "name": "submitEncryptedJob",
      "outputs": [],
      "stateMutability": "nonpayable",
      "type": "function"
    }
  ],
  "bytecode": "0x608060405234801561000f575f5ffd5b506100c461001b6100c9565b80517f9e7b61f58c47dc699ac88507c4f5bb9f121c03808c5676a8078fe583e464970080546001600160a01b03199081166001600160a01b039384161790915560208301517f9e7b61f58c47dc699ac88507c4f5bb9f121c03808c5676a8078fe583e46497018054831691841691909117905560408301517f9e7b61f58c47dc699ac88507c4f5bb9f121c03808c5676a8078fe583e46497028054909216921691909117905550565b610238565b604080516060810182525f808252602082018190529181019190915246600103610122575060408051606080820183525f8083526020808401829052928401819052835191820184528082529181018290529182015290565b4662aa36a7036101a1575060408051606080820183525f8083526020808401829052928401528251908101835273f0ffdc93b7e186bc2f8cb3daa75d86d1930a433d81527392c920834ec8941d2c77d188936e1f7a6f49c1279181019190915273be0e383937d564d7ff0bc3b46c51f0bf8d5c311a9181019190915290565b46617a690361021f575060408051606080820183525f8083526020808401829052928401528251908101835273f0ffdc93b7e186bc2f8cb3daa75d86d1930a433d81527392c920834ec8941d2c77d188936e1f7a6f49c1279181019190915273be0e383937d564d7ff0bc3b46c51f0bf8d5c311a9181019190915290565b6040516373cac13b60e01b815260040160405180910390fd5b610546806102455f395ff3fe608060405234801561000f575f5ffd5b506004361061004a575f3560e01c80637b4dabaf1461004e5780638927b0301461008e578063c17dd007146100a4578063db107fe1146100b9575b5f5ffd5b61007961005c366004610416565b6001600160a01b03165f9081526001602052604090205460ff1690565b60405190151581526020015b60405180910390f35b6100966100e1565b604051908152602001610085565b6100b76100b236600461043c565b6100ef565b005b6100966100c7366004610416565b6001600160a01b03165f9081526020819052604090205490565b5f6100ea610204565b905090565b335f9081526001602052604090205460ff16156101525760405162461bcd60e51b815260206004820152601860248201527f4a6f6220494420616c7265616479207375626d69747465640000000000000000604482015260640160405180910390fd5b5f6101928484848080601f0160208091040260200160405190810160405280939291908181526020018383808284375f9201919091525061023892505050565b335f8181526020819052604090208290559091506101b190829061024c565b506101bb8161025e565b50335f818152600160208190526040808320805460ff1916909217909155517f25345c5f8cbfed79f4789cc2e6f8536b620fbccf491beff74d0329ce22bf1b279190a250505050565b5f466001036102135750600190565b4662aa36a703610224575061271190565b46617a690361023357505f1990565b505f90565b5f6102458383600461026d565b9392505050565b5f610257838361038d565b5090919050565b5f610269823061038d565b5090565b7f9e7b61f58c47dc699ac88507c4f5bb9f121c03808c5676a8078fe583e46497015460405163045fc19560e11b81525f917f9e7b61f58c47dc699ac88507c4f5bb9f121c03808c5676a8078fe583e4649700916001600160a01b03909116906308bf832a906102e69088903390899089906004016104b3565b6020604051808303815f875af1158015610302573d5f5f3e3d5ffd5b505050506040513d601f19601f820116820180604052508101906103269190610522565b8154604051630f8e573b60e21b8152600481018390523360248201529193506001600160a01b031690633e395cec906044015f604051808303815f87803b15801561036f575f5ffd5b505af1158015610381573d5f5f3e3d5ffd5b50505050509392505050565b5f7f9e7b61f58c47dc699ac88507c4f5bb9f121c03808c5676a8078fe583e46497008054604051635ca4b5b160e11b8152600481018690526001600160a01b03858116602483015292935091169063b9496b62906044015f604051808303815f87803b1580156103fb575f5ffd5b505af115801561040d573d5f5f3e3d5ffd5b50505050505050565b5f60208284031215610426575f5ffd5b81356001600160a01b0381168114610245575f5ffd5b5f5f5f6040848603121561044e575f5ffd5b83359250602084013567ffffffffffffffff81111561046b575f5ffd5b8401601f8101861361047b575f5ffd5b803567ffffffffffffffff811115610491575f5ffd5b8660208284010111156104a2575f5ffd5b939660209190910195509293505050565b8481526001600160a01b0384166020820152608060408201525f8351806080840152806020860160a085015e5f60a0828501015260a0601f19601f8301168401019150506054831061051357634e487b7160e01b5f52602160045260245ffd5b82606083015295945050505050565b5f60208284031215610532575f5ffd5b505191905056fea164736f6c634300081b000a",
  "linkReferences": {},
  "deployedLinkReferences": {}
}